:020000040800F2
:100000003804002005010008CB0F00082D0F000860
:10001000C90F00089906000835100008000000000C
:10002000000000000000000000000000CF0F0008EA
:100030000D07000800000000CD0F0008D10F0008D8
:100040001F0100081F0100081F0100081F01000810
:100050001F0100081F0100081F0100081F01000800
:100060001F0100081F0100081F0100081F010008F0
:100070001F0100081F0100081F0100081F010008E0
:100080001F0100081F0100081F0100081F010008D0
:100090001F0100081F0100081F0100081F010008C0
:1000A0001F0100081F0100081F0100081F010008B0
:1000B0001F0100081F0100081F0100081F010008A0
:1000C0001F0100081F0100081F0100081F01000890
:1000D0001F0100081F0100081F0100081F01000880
:1000E0001F0100081F0100081F010008DFF810D0E1
:1000F00000F042FA004800474D1B0008AFF30080B3
:10010000380400200648804706480047FEE7FEE71F
:10011000FEE7FEE7FEE7FEE7FEE7FEE7FEE7FEE7B7
:1001200033100008ED000008202A04DB203A21FAF1
:1001300002F00021704721FA02F3D040C2F1200200
:100140009140084319467047D2B201E000F8012BF4
:10015000491EFBD270470022F6E710B513460A4647
:1001600004461946FFF7F0FF204610BD421C10F868
:10017000011B0029FBD1801A704730B50B460146A0
:1001800000202022012409E021FA02F59D4205D336
:1001900003FA02F5491B04FA02F52844151EA2F1E0
:1001A0000102F1DC30BD2DE9F05F054600209246EA
:1001B0009B4688460646814640241BE02846414629
:1001C00047462246FFF7B0FF53465A46C01A9141B0
:1001D00010D311461846224600F0E0F92D1A67EBBD
:1001E00001084F4622460120002100F0D7F917EB05
:1001F00000094E41201EA4F10104DFDC48463146CF
:100200002A464346BDE8F09F2DE9FE4F804681EA2D
:100210000300C00F0C46009021F0004123F0004580
:10022000B8EB0200A94105D24046214690461C4643
:100230000B46024623F00040104347D0270DC7F37A
:100240000A00C3F30A510290401A019040286BDA69
:10025000C3F3130040F4801B0098924620B10023A2
:10026000D2EB030A63EB0B0B01985946C0F1400235
:10027000504600F093F906460D4650465946019AFD
:1002800000F09BF910EB08006141002487EA11524D
:1002900084EAE7731A4340D0009A62B3019A012AB4
:1002A0004FEA075215DC001B61EB02014FF00042E0
:1002B00002EA0752CDE90042001C41F580113246A6
:1002C0002B4600F09BF903B0BDE8F08F4046214675
:1002D000F9E7001B61EB0201001C41F580130018D7
:1002E0005B412018A2F5001747EB030140EAD570E7
:1002F000B6196D4111E06D084FEA360645EAC07542
:100300004FEA0752001B61EB0201001C41F580110E
:1003100049084FEA30000019514132462B4603B0DC
:10032000BDE8F04F00F05BB90098012240000023C7
:10033000D0EB020263EBE073009821464FEAE074D1
:10034000B8EB000061EB0401E9E783F000435BE7F1
:1003500081F0004158E72DE9FE4F81EA030404F0E3
:10036000004421F0004100944FF0000B23F00043C3
:1003700050EA01045ED052EA03045BD0C3F30A548E
:10038000C1F30A552C44A4F2F3340194A0FB0254A7
:10039000C1F3130141F48011C3F3130343F4801339
:1003A00001FB024400FB034E840A970A44EA81548D
:1003B00047EA8357A4FB076802958D0A05FB07856A
:1003C0004FEA932C04FB0C542705029D4FEA065874
:1003D00047EA1637B5EB08056EEB070C870E920E51
:1003E00047EA811742EA8312A7FB0201B6EB0B0131
:1003F00064EB00042B0D43EA0C335E1844EB1C50F5
:10040000DA465146E7FB0201C5F313044FEA0B330A
:1004100043EA14534FEA0432019C43EA0603A4F171
:100420000C040294009CCDE900B400F0E7F803B09E
:10043000BDE8F08F00200146F9E72DE9F04D81EA93
:10044000030404F0004B21F0004514464FF0000A6D
:1004500023F0004150EA050220D054EA01021DD0E9
:10046000C5F30A570246C5F31303C1F31300C1F3E2
:100470000A5640F4801543F48013A7EB0608101BBE
:10048000D64608F2FD3873EB050002D308F10108E7
:1004900001E092185B41B8F1000F03DA0020014639
:1004A000BDE8F08D00204FF48011064684460EE032
:1004B000171B73EB050705D3121B63EB05030643FC
:1004C0004CEA010C49084FEA300092185B4150EAAF
:1004D0000107EDD152EA030012D082EA040083EA58
:1004E0000501084305D0101BAB4106D201220023B1
:1004F00006E000224FF0004302E06FF001025310CB
:100500001AEB06004CEB085110EB0A0041EB0B0113
:10051000BDE8F04D00F063B8C1F30A52C1F3130116
:1005200040F2FF3341F480119A4202DA0020014682
:10053000704740F233439A42A2F2334202DC524205
:10054000FFF7F2BD00F02AB830B5041E71F10004C7
:1005500004DB4FF00044404264EB0101141E73F1D0
:10056000000405DB1C464FF00043524263EB0403DA
:10057000994208BF904230BD064C074D06E0E06846
:1005800040F0010394E8070098471034AC42F6D3DA
:10059000FFF7B0FDDC1B0008FC1B0008202A04DB71
:1005A000203A00FA02F1002070479140C2F1200386
:1005B00020FA03F3194390407047202A06DBCB173B
:1005C000203A41FA02F043EAE07306E041FA02F30E
:1005D000D040C2F12002914008431946704710B53F
:1005E000141E73F1000408DA401C41F10001921856
:1005F0005B411A4301D120F0010010BD2DE9F04DFF
:1006000092469B4611B1B1FA81F202E0B0FA80F253
:1006100020329046FFF7C2FF04460F4640EA0A0028
:1006200041EA0B0153465A46084313D0114653EA98
:10063000010019D0C8F140025046FFF775FD05468C
:100640000E46504659464246FFF7A8FF084305D0DC
:10065000012004E020463946BDE8F08D0020054326
:1006600046EAE0762C4337430A986305E40AA0EB98
:1006700008000022FD0A44EA47540A3002D500204F
:100680000146E9E7010510196941DDE9084500194E
:100690006941BDE8F04DA2E7FEE700000E480168A1
:1006A00021F080710160016841F0807101600B48A8
:1006B000016821F001010160016841F00101016060
:1006C0000021416000BF00BF00BF406808B10020AA
:1006D0007047012070470000FCED00E0001000E0D2
:1006E00031B5084D6C6800F041FA0749B0FBF1F0F4
:1006F00000994843009068680099001B8842FAD32B
:1007000038BD0000001000E040420F0070470000BC
:1007100070B5044600F004F90546601C02D0044898
:100720000078044400F0FCF8401BA042FAD370BDEE
:10073000240000202DE9F84FDFF8B891002409F1DA
:10074000040A0AF1040B23460F270BF1040EC9E03B
:100750000125A5402A40AA427DD1674ED1F804C0A8
:10076000ACEB0608B44532D014DCBCF1030F3AD030
:1007700009DCBCF1000F2AD0BCF1010F1CD0BCF188
:10078000020F31D11DE0BCF1110F17D0BCF1120FD7
:100790002AD119E0B8F5881F19D006DCB8F5803FDA
:1007A00015D0B8F5801F1FD111E0B8F5001F0ED08D
:1007B000B8F5041F18D10AE0CB6815E0CB681B1D03
:1007C00012E0CB6808330FE0CB680C330CE08B6889
:1007D0002BB1012B4FF0080303D0456104E0042343
:1007E00002E0056100E00023FF2A01D8064601E08F
:1007F00000F104064FEA840501D9A5F12005D6F8D9
:10080000008007FA05FC28EA0C0803FA05F548EA17
:100810000508C6F800804D68ED0062D5374DAE6919
:1008200046F00106AE61AD6924F0030605F001054E
:100830000095334D06EB050CDCF80850A607360F83
:1008400007FA06F825EA0805DFF8B880404503D125
:100850004FF0000817E044E0DFF8AC80404502D1DB
:100860004FF001080FE0DFF8A480404502D14FF0BF
:10087000020808E0DFF89880404502D14FF00308F5
:1008800001E04FF0040808FA06F848EA0508CCF839
:1008900008804D68D9F80060ED034D4601D5164338
:1008A00000E096432E604D68DAF80060AD035546CF
:1008B00001D5164300E096432E604D68DBF80060DA
:1008C000ED025D4601D5164300E096432E604D686B
:1008D000DEF80060AD02754601D5164300E0964390
:1008E0002E60641C0D682A46E5407FF431AFBDE8F8
:1008F000F88F0000000401400000111000100240B9
:100900000000014000080140000C014000100140BF
:10091000001401400AB1016170470904FBE70000BF
:100920000148806870470000240000200248816868
:10093000027811448160704724000020074810B5F8
:10094000016841F010010160032000F067F8002009
:1009500000F006F800F024F8002010BD002002404E
:1009600070B50D4D04464FF47A712878B1FBF0F064
:100970000A490968B1FBF0F000F0C4FA48B9102C3C
:1009800007D200222146501E00F028F800206C609B
:1009900070BD012070BD0000240000203000002048
:1009A0000C4808B5816941F001018161816901F05C
:1009B00001010091C16941F08051C161C06900F03D
:1009C000805000900448416821F0E06141F00071DE
:1009D000416008BD0010024000000140F0B40E4B21
:1009E0001B680C46C3F30223C3F10705042D00D98D
:1009F0000425191D072901D2002300E0DB1E012672
:100A000006FA05F1491E214099409E40761E164087
:100A10003143F0BC00F022BB0CED00E0064900F0D1
:100A2000070208684FF6FF03184040EA0220034A15
:100A300010430860704700000CED00E00000FA056C
:100A40002DE9F0470F46050061D0434E306800F0B5
:100A50000700B84209D2306820F007003843306000
:100A6000306800F00700B84251D128683B4C81073C
:100A700012D5400703D5606840F4E06060602878D4
:100A8000000703D5606840F4605060606068A96842
:100A900020F0F000084360602878C00728D068681C
:100AA000012810D02168022810D0890700292EDAE9
:100AB000616821F0030101436160FFF731FF804667
:100AC00041F288390DE021688903EFE78901EDE7FC
:100AD000FFF726FFA0EB0801494502D90320BDE836
:100AE000F0876068696800F00C00B0EB810FEFD10F
:100AF000306800F00700B8420BD9306820F00700DA
:100B000038433060306800F00700B84201D001205F
:100B1000E5E72878400705D56068E96820F4E060DB
:100B2000084360602878000706D56068296920F4CA
:100B3000605040EAC100606000F01EF86168084A39
:100B4000C1F30311515CC8400649086006480068BB
:100B5000FFF706FF0020C2E700200240001002401D
:100B6000CC1B00083000002028000020014800684D
:100B7000704700003000002012A185B00FC98DE839
:100B80000F0014A0144A006804905168134801F043
:100B90000C03042B10D0082B0ED1C1F38343C903DF
:100BA0001DF803000AD5516804AAC1F34041515C05
:100BB0000A4A5043B0FBF1F005B07047084948437A
:100BC000FAE7000002030405060708090A0B0C0DEA
:100BD0000E0F1010010200000010024000127A00F7
:100BE00000093D002DE9F84F040070D02078C04D79
:100BF000C00749D06868C0F38100012807D0686841
:100C0000C0F38100022809D16868C00306D52868AE
:100C1000800339D560680028E7D035E06068B0F51A
:100C2000803F0BD010B1B0F5A02F11D0286820F470
:100C300080302860286820F4802002E0286840F492
:100C400080302860606890B1FFF76AFE06460AE0CF
:100C5000286840F480202860F0E700BFFFF760FEBE
:100C6000801B642873D828688003F7D50CE0FFF751
:100C700057FE064605E000BFFFF752FE801B6428C2
:100C8000F0D828688003F7D420789A4E80074FF078
:100C900001094FF0000839D5686810F00C0F07D033
:100CA0006868C0F38100022809D16868C00306D4CF
:100CB0002868800714D52069012808D110E0206930
:100CC000B0B1C6F80090FFF72BFE074605E00AE139
:100CD000FFF726FEC01B0228C4D828688007F7D576
:100CE0002868616920F0F80040EAC10028600DE042
:100CF000C6F80080FFF714FE074604E0FFF710FE79
:100D0000C01B022823D828688007F7D42078000762
:100D10002CD57948A169D9B1C0F80090FFF700FE41
:100D2000074604E0FFF7FCFDC01B02280FD8686AE5
:100D30008007F7D571484FF4FA510068B0FBF1F025
:100D4000009000BF0098411E0091FAD20EE080E0B2
:100D5000C0F80080FFF7E4FD074604E0FFF7E0FD80
:100D6000C01B022875D8686A8007F7D4207840072E
:100D700060D5E8690027C00008D4E86940F08050D9
:100D8000E861E869012700F0805000905C48016844
:100D9000C90513D40168834641F480710160FFF7EF
:100DA000BFFD824606E000BFFFF7BAFDA0EB0A00D8
:100DB00064284ED8DBF80000C005F5D5E0680128AE
:100DC0000AD008B1052813D0286A20F00100286253
:100DD000286A20F0040002E0286A40F0010028623E
:100DE000E06841F2883B98B1FFF79AFD82460BE03C
:100DF000286A40F004002862EEE700BFFFF790FD8C
:100E0000A0EB0A0159455AD8286A8007F6D50CE0AC
:100E1000FFF786FD824605E0FFF782FDA0EB0A01A1
:100E200059454CD8286A8007F6D41FB1E86920F0EC
:100E30008050E861E06988B36968C1F381010229E3
:100E400044D00228C6F8608004D0FFF769FD04464C
:100E500038E034E0FFF764FD074604E0FFF760FD8B
:100E6000C01B02282BD828688001F7D4206AB0F56F
:100E7000803F05D16868A16820F4003008436860AD
:100E8000D4E908010843696821F4741108436860D3
:100E9000C6F86090FFF744FD044606E025E000BF79
:100EA000FFF73EFD001B022809D828688001F7D50E
:100EB0001BE000BFFFF734FD001B022802D903200E
:100EC000BDE8F88F28688001F4D40EE00128F7D03F
:100ED0006868226A00F48031914204D1616A00F4AA
:100EE0007010884201D00120EAE70020E8E7000006
:100EF00000100240000042428004424230000020C4
:100F00000070004010B5401EB0F1807F01D3012079
:100F100010BD4FF0E02460610F21601700F09EF8D3
:100F20000020A06107202061002010BDFEE7000026
:100F30002DE9F04186B000242048009401940294E9
:100F40000394816941F020018161816901F02001F0
:100F50000491816941F004018161816901F004011A
:100F60000491816941F0080181618069144F00F0AA
:100F7000080004900022FF213846FFF7CBFCDFF881
:100F80004480002203214046FFF7C4FCFF200125D6
:100F90000226CDE90005CDE9024669463846FFF74D
:100FA000C9FB0320CDE90005CDE90246694640466C
:100FB000FFF7C0FB06B0BDE8F08100000010024062
:100FC00000080140000C0140FEE7FEE77047704753
:100FD000FFF7ACBC30B58FB028216846FFF7BBF8EF
:100FE00014210AA8FFF7B7F801210804CDE9001081
:100FF0000024029402250491CDE907504FF4E0103B
:1010000009906846FFF7EEFD08B172B6FEE70F20C3
:10101000CDE90A054FF48060CDE90C4002210AA811
:101020000E94FFF70DFD002801D072B6FEE70FB059
:1010300030BD7047FEE7000037B514460846064B42
:101040006A46214600F0ECF804466946002000F0AC
:101050006AFC20463EBD0000271900080907090E5A
:10106000002804DB00F1E02080F80014704700F055
:101070000F0000F1E02080F8141D704702E008C85E
:10108000121F08C1002AFAD170477047002001E002
:1010900001C1121F002AFBD1704700002DE9FF5F3C
:1010A00082B00021DDE90430020DDDF840B00343D9
:1010B00018D044F61050A2F2FF3242431514119892
:1010C00001281FD0A5EB0B00401C5FEA000A4FF07F
:1010D00000064E4FDFF83891B046504615D5CAF19C
:1010E000000413E0119801244AA3012801D16FEAFA
:1010F0000B010298119AC0E90031C0E9024206B022
:10110000BDE8F09FCBF10000DFE704460021404A34
:10111000491842EB0450CDE9001012E0E00707D077
:1011200032463B4640464946FFF715F98046894618
:1011300032463B4610461946FFF70DF906460F4664
:101140006410002CEAD1DDE90401DDE90023BAF1E5
:10115000000F06DAFFF7FFF842464B46FFF7FBF8B1
:1011600005E0FFF76AF942464B46FFF766F9044689
:101170000E460022284BFFF7E7F903D84FF0FF3067
:10118000014607E00022254B20463146FFF73CF898
:10119000FFF7C2F9102409E0002C0ADB0A22002321
:1011A000FFF701F8039B30321A55641E50EA010222
:1011B000F2D1641C039AC4F111031444119A012A58
:1011C00003D0012208430DD10AE0084304D00020D7
:1011D0004FF0110B119072E7A3EB0B056D1E0DE0A4
:1011E0005B4504DD4FF0000205F1010504E003DA80
:1011F0004FF00002A5F10105002AECD002981199E8
:10120000C0E90231C0E9004579E700000000144060
:101210000000F03F300000000000F0430000E03F1D
:101220002DE9FF4F95B09A46884606460025EEE127
:10123000252877D100242746F94A0121039400E0AC
:10124000044316F8013F203B01FA03F01042F7D1A6
:1012500030782A2811D06FF02F033078A0F13002B7
:10126000092A16D8039A44F0020402EB820203EB27
:1012700042021044761C0390EFE758F8042B0392C7
:10128000002A03DA504244F40054039044F002046C
:10129000761C30782E2816D116F8010F44F004047D
:1012A0002A280DD06FF02F023078A0F13003092BDF
:1012B00009D807EB870302EB4303C718761CF3E753
:1012C00058F8047B761C30786C280FD006DC4C284C
:1012D00017D068280DD06A2814D104E0742810D0E3
:1012E0007A280FD10DE044F400140AE044F480148D
:1012F00001E044F440147278824202D104F5801473
:10130000761C761C307866280BD013DC582877D0F2
:1013100009DC002875D04528F6D04628F4D04728A7
:101320001AD193E118E0632835D0642879D0652874
:1013300012D18BE1702873D008DC6728F1D06928BE
:101340006FD06E280DD06F2806D1ACE073282CD05A
:10135000752874D0782853D05246179990476D1C41
:1013600054E1C4F30250022809D003280DD0D8F864
:10137000001004280DD00D6008F1040846E1D8F8EB
:101380000010EA17C1E90052F6E7D8F800100D8006
:10139000F2E70D70F0E718F8041B8DF8001000203C
:1013A0008DF80100EB46012003E058F804BB4FF034
:1013B000FF3061074FF0000102D40DE009F1010197
:1013C0008946B9420FDA8145F8DB1BF8091000297C
:1013D000F4D108E009F1010189468142FADB1BF8EA
:1013E00009100029F6D103985346A0EB09072146BE
:1013F0003846179A00F080FA284400EB090507E008
:1014000044E008E10DE01BF8010B524617999047A4
:10141000B9F10109F7D2534621463846179AF2E04E
:1014200039E00A21C4F302524FF0000B0091022A66
:1014300006D058F8040BC117032A09D00AE023E0AC
:1014400008F1070020F00702F2E80201904605E0EB
:1014500000B2C117042A01D140B2C117002906DA2F
:101460000A460021404261EB02012D2202E02205E2
:1014700004D52B228DF80420012203E0E20701D0DD
:101480002022F7E7914657E00A2100E010214FF0B3
:10149000000B00910BE010214FF0000B44F004040E
:1014A0000827009103E008204FF0000B0090C4F3E0
:1014B0000252022A05D058F8040B0021032A08D052
:1014C00008E008F1070020F00702F2E80201904668
:1014D00003E080B2042A00D1C0B24FF00009220715
:1014E0002AD53278702A07D0DDF800C08CF0100CB5
:1014F0005CEA0B0C05D00EE040228DF8042001229E
:1015000008E050EA010306D030238DF804308DF84E
:10151000052002229146009B83F0080353EA0B0347
:101520000AD150EA010201D1620705D530228DF8B7
:1015300004204FF001097F1E3278582A04D039A2C6
:101540000C920CAA02920BE03BA2F9E75B46009AD0
:10155000FEF729FE0C9B9B5C029A521E02921370AE
:1015600050EA0102F2D1029804A9081A00F1200BF6
:10157000600702D524F4803400E001275F4502DDD6
:10158000A7EB0B0000E0002000EB0B01009003989C
:101590004944401A0390E00306D453462146179A63
:1015A000039800F0A9F90544002706E001A8524677
:1015B000C05D179990476D1C7F1C4F45F6DBE0031B
:1015C0000CD553462146179A039800F095F9054427
:1015D00004E030205246179990476D1C0099481E30
:1015E00000900029F5DC08E0029802995246007844
:1015F000491C0291179990476D1CBBF10001ABF19A
:10160000010BF1DC5BE100F065F90544761C3078F4
:1016100000287FF40DAE19B02846BDE8F08F000019
:1016200009280100303132333435363738396162B8
:10163000636465660000000030313233343536377C
:10164000383941424344454600000000600700D459
:10165000062708F1070020F00700F0E80223804683
:1016600003F0004C5FEA0C0001D097A009E02005D0
:1016700001D596A005E0E00701D095A001E0AFF20A
:101680004C001390307823F0004365280CD006DC22
:10169000452809D046281DD047287FD13BE0662841
:1016A00018D067287AD136E00021112F01DB1120F4
:1016B00000E0781CCDE9000104A90CA8FFF7EEFCBE
:1016C000DDE90D010C9A4FF0000B07F101091092B2
:1016D00000914EE04FF000400097CDE9011004A9C1
:1016E0000CA8FFF7DBFCDDE90D020C9B0F994FF016
:1016F000000B91461093009211B9791C00EB01097F
:10170000B7EB090003D4C0F1FF3B07F10109A9EBD6
:101710000700019042E0012F00DA01270021112F7C
:1017200001DD112000E03846CDE9000104A90CA834
:10173000FFF7B4FCDDE90D010C9A00914FF0000BAE
:10174000B946109221070FD4009A4A4503DA914610
:1017500001E0A9F10109B9F1010F05DD109AA9F124
:101760000101515C3029F4D0B84202DA10F1040FC3
:1017700003DA0121CDE9011010E0002803DC8344E5
:10178000A9EB000102E0411C494500DD8946A0EBC0
:101790000B00401C01904FF000400290200705D440
:1017A0000198484502DB4FF0FF30019000208DF892
:1017B0004B0002980DF14B07B0F1004F25D00220ED
:1017C0000C902B200D90029800280CDA40420290D9
:1017D0002D200D9007E00A210298FEF7CEFC303153
:1017E000029007F8011D0C99481E0C900029F2DCAC
:1017F00002980028EFD1791E0D980870307800F01B
:10180000200040F0450007F8020D11A8C01BC01DC4
:1018100002901398007800B1012000EB09010198B3
:1018200001EBE071029801440398401A401E0390B6
:10183000E00306D453462146179A039800F05CF85B
:1018400005441398007818B15246179990476D1CBB
:10185000E00323D553462146179A039800F04CF82D
:1018600005441BE0BBF1000F07DB0098584504DD81
:101870001098179910F80B0001E017993020524684
:10188000904701980BF1010B401E05F101050190F5
:1018900004D12E205246179990476D1CB9F10001D2
:1018A000A9F10109DEDC05E017F8010B5246179992
:1018B00090476D1C0299481E02900029F4DC5346A3
:1018C0002146179A03989EE62D0000002B00000089
:1018D000200000002DE9F041044600251E46174671
:1018E000880404D405E039462020B0476D1C641EEE
:1018F000F9D52846BDE8F0812DE9F04104460025E0
:101900001E469046C80301D5302700E020278804F2
:1019100004D505E041463846B0476D1C641EF9D534
:101920002846BDE8F0810A68531C0B6010707047B0
:1019300010B5094C0122E188A069FEF7EBFF1420E5
:10194000FEF7CEFE0022E188A069FEF7E3FFBDE8C6
:1019500010403C20FEF7C4BE000000202DE9F05FDF
:101960001C46DDE90D9815460E460746DDF828B001
:10197000DDF844A0FEF792FE1E4887618680C58090
:10198000C461A0F808B00B9941810C998181A0F83D
:101990000E90C0F820800F99018210994182A0F822
:1019A00014A01299C1820121017038218170142084
:1019B000FEF7AEFE302000F0BFF80520FEF7A8FECF
:1019C000302000F0B9F80120FEF7A2FE302000F030
:1019D000B3F80120FEF79CFE382000F0ADF80C2093
:1019E00000F0AAF8012000F0A7F8BDE8F05F02209F
:1019F000FEF78EBE000000200FB470B586B00BAAB3
:101A000068460A99FFF718FB00246E4608E0355D2A
:101A1000012000F011F8284600F022F8641CE4B21E
:101A20006846FEF7A3FBA04201D9102CEFD306B005
:101A300070BC5DF814FB0000024602488188806992
:101A4000FEF768BF0000002001F00F0120B141F057
:101A5000C00000BF00F070B841F08000FAE700005D
:101A60002DE9F84F0209334C02F0080302F0040B91
:101A7000217802F0020902F0010700F0080A00F0E4
:101A8000040600F0020500F00108009321B342466D
:101A90002189E069FEF73EFF2A466189E069FEF789
:101AA00039FF3246A189E069FEF734FF5246E189E9
:101AB000E069FEF72FFF3A46218A206AFEF72AFFE7
:101AC0004A46618A206AFEF725FF5A46A18A206AA3
:101AD000FEF720FF009A25E03A46218A206AFEF7A9
:101AE00019FF4A46618A206AFEF714FF5A46A18A06
:101AF000206AFEF70FFFE18A009A206AFEF70AFFCC
:101B0000FFF716FF4246218A206AFEF703FF2A46A6
:101B1000618A206AFEF7FEFE3246A18A206AFEF73D
:101B2000F9FE5246E18A206AFEF7F4FEBDE8F84F5E
:101B3000FFF7FEBE0000002010B504460020FFF7AE
:101B40007BFF2046BDE81040FFF78ABF8AB0FEF752
:101B5000F5FEFFF73FFAFFF7EBF90DF1140C8023C8
:101B60004022202110208CE80F0008200421CDE91C
:101B7000021001200222CDE900020A4B0146049323
:101B80000948FFF7EBFE02210020FFF75DFF07A0E9
:101B9000FFF732FF02210120FFF756FF07A0FFF7F2
:101BA0002BFFFEE700080140000C014048656C6C0B
:101BB0006F20446576496F540000000053544D3344
:101BC00032204F6E6C696E6500000000000000005E
:101BD000000000000102030406070809FC1B0008BE
:101BE00000000020340000007C100008301C0008B9
:101BF00034000020040400008C100008010F38009D
:101C000000000000000000000000000000000000D4
:101C100000000000000000000000000000000000C4
:101C20000100000010000000000000000024F4008B
:04000005080000ED02
:00000001FF
