:020000040800F2
:10000000A8040020050100088D160008ED10000866
:100010008B160008AF0100086717000800000000F9
:1000200000000000000000000000000001170008B0
:10003000C7010008000000008F1600080317000821
:100040001F0100081F0100081F0100081F01000810
:100050001F0100081F0100081F0100081F01000800
:100060001F0100081F0100081F0100081F010008F0
:100070001F0100081F0100081F0100081F010008E0
:100080001F0100081F0100081F0100081F010008D0
:100090001F0100081F0100081F0100081F010008C0
:1000A0001F0100081F0100081F0100081F010008B0
:1000B0001F0100081F0100081F0100081F010008A0
:1000C0001F0100081F0100081F0100081F01000890
:1000D0001F0100081F0100081F0100081F01000880
:1000E0001F0100081F0100081F010008DFF810D0E1
:1000F00000F042F8004800471D1B0008AFF30080E5
:10010000A80400200648804706480047FEE7FEE7AF
:10011000FEE7FEE7FEE7FEE7FEE7FEE7FEE7FEE7B7
:1001200065170008ED000008D2B201E000F8012BCD
:10013000491EFBD270470022F6E710B513460A4667
:1001400004461946FFF7F0FF204610BD30B50B46B8
:10015000014600202022012409E021FA02F59D42F7
:1001600005D303FA02F5491B04FA02F52844151ECB
:10017000A2F10102F1DC30BD064C074D06E0E0685B
:1001800040F0010394E8070098471034AC42F6D3DE
:10019000FFF7B0FF301C0008501C000800F00F01F2
:1001A000000900EB800001EB4000C0B27047FEE7A1
:1001B0000A21B0FBF1F201FB1202B0FBF1F042EABE
:1001C0000010C0B27047704710B586B004464FF4B7
:1001D0007A72072103A88DE8070016480123002240
:1001E000D021006800F08AFA9DF80C00FFF7D6FFD6
:1001F00020709DF80D00FFF7D1FF60709DF80E0094
:10020000FFF7CCFFA0709DF80F00FFF7C7FFE0706D
:100210009DF81000FFF7C2FF20719DF81100FFF755
:10022000BDFF60719DF81200FFF7B8FFA07106B026
:1002300010BD00000800002070B5044600F0FEF874
:100240000546601C02D004480078044400F0F6F82B
:10025000401BA042FAD370BD0C0000202DE9F84FDE
:10026000DFF8B891002409F1040A0AF1040B2346CF
:100270000F270BF1040EC9E00125A5402A40AA4230
:100280007DD1674ED1F804C0ACEB0608B44532D03E
:1002900014DCBCF1030F3AD009DCBCF1000F2AD00A
:1002A000BCF1010F1CD0BCF1020F31D11DE0BCF13B
:1002B000110F17D0BCF1120F2AD119E0B8F5881F21
:1002C00019D006DCB8F5803F15D0B8F5801F1FD1D6
:1002D00011E0B8F5001F0ED0B8F5041F18D10AE0E0
:1002E000CB6815E0CB681B1D12E0CB6808330FE02C
:1002F000CB680C330CE08B682BB1012B4FF008035B
:1003000003D0456104E0042302E0056100E000231E
:10031000FF2A01D8064601E000F104064FEA8405F1
:1003200001D9A5F12005D6F8008007FA05FC28EAD6
:100330000C0803FA05F548EA0508C6F800804D6880
:10034000ED0062D5374DAE6946F00106AE61AD698C
:1003500024F0030605F001050095334D06EB050C6E
:10036000DCF80850A607360F07FA06F825EA080554
:10037000DFF8B880404503D14FF0000817E044E0B3
:10038000DFF8AC80404502D14FF001080FE0DFF804
:10039000A480404502D14FF0020808E0DFF89880C1
:1003A000404502D14FF0030801E04FF0040808FA7D
:1003B00006F848EA0508CCF808804D68D9F80060CE
:1003C000ED034D4601D5164300E096432E604D687F
:1003D000DAF80060AD03554601D5164300E09643B8
:1003E0002E604D68DBF80060ED025D4601D51643D6
:1003F00000E096432E604D68DEF80060AD02754661
:1004000001D5164300E096432E60641C0D682A4611
:10041000E5407FF431AFBDE8F88F000000040140F3
:1004200000001110001002400000014000080140CF
:10043000000C014000100140001401400148806898
:10044000704700000C00002070B5040025D094F81F
:100450003D00002520B984F83C50204600F00EFBFA
:10046000242084F83D002068016821F0010101602A
:100470002068016841F4004101602068016821F4AE
:100480000041016000F048FC4D4A6168914201D88A
:100490004C4900E04C49884201D2012070BD4B49D3
:1004A0002368B0FBF1F15E6826F03F060E435E6004
:1004B0006368934206D94FF4967359434FF47A73A5
:1004C000B1FBF3F12368491C1E6A26F03F06314355
:1004D00019626168914210D84900401EB0FBF1F2E8
:1004E000521CC2F30B02042A01D2042022E0B0FB0A
:1004F000F1F0401CC0F30B001CE0A268F2B301EB6A
:10050000C10303EB0116431EB3FBF6F35B1C43F47C
:1005100080431B0549D092B301EBC10202EB0111EC
:10052000401EB0FBF1F0401CC0F30B0040F48040D3
:1005300040F400402168CA694CF6FF739A431043A7
:10054000C861D4E9071001432068026822F0C002A4
:1005500011430160D4E9030101432068826848F235
:10056000FF339A4311438160D4E9050108432168B0
:10057000CA6822F0FF021043C86001E00EE016E0F6
:100580002068016841F0010101602564202084F8A1
:100590003D00256384F83E50002070BD01EB41060C
:1005A000431EB3FBF6F35B1CB3E70120C2E701EB8C
:1005B0004101401EB0FBF1F0401CC0F30B00B7E757
:1005C000A086010080841E0000093D0040420F000B
:1005D0002DE9F84F1F4690468A460446DDF82890DC
:1005E000FFF72CFF054694F83D0020287FD1192302
:1005F000012240492046009500F0DEFE002876D119
:1006000094F83C00012872D0012084F83C00206856
:100610000168C90703D1016841F001010160206848
:10062000016821F400610160212084F83D00102060
:1006300084F83E0000262664C4F824806785608D17
:1006400020852D48E0622B464A465146204600F060
:100650006DFD90B9206841698069009036E02A46B6
:100660004946204600F05AFF50B1206C042804D1BE
:100670002068016841F4007101600120BDE8F88F35
:10068000606A216800780861606A401C6062618D60
:10069000491E6185218D491E89B2218522685369D1
:1006A000DB435B070BD451B100781061606A401CDA
:1006B0006062608D401E6085208D401E20852A4628
:1006C0004946204600F052FE0028CED1208D002859
:1006D000C5D154F83D0B016841F400710160202040
:1006E00004F81E09E67766770020C7E7FFE70220D7
:1006F000C4E70000020010000000FFFF2DE9FF4FDB
:1007000083B00025DDE910799A4693460446DDF86A
:1007100048800095FFF792FE064694F83D00202899
:100720007CD11923012285492046009600F044FE21
:100730000028F5D194F83C0001286FD0012084F8FE
:100740003C0020680168C90703D1016841F001013C
:1007500001602068016821F400610160222084F8B2
:100760003D00402084F83E0025646762A4F82A908A
:10077000608D20857248E062CDE9008653465A4676
:100780002046049900F020FD00287DD1208DDFF85F
:10079000B491202768B1012814D00228206801688C
:1007A0001ED041F480610160206841698069009039
:1007B000B6E02068416981690091016841F40071E7
:1007C0000160ADE02068016821F48061016072B6CB
:1007D0002068416981690091016841F400710AE073
:1007E00041F40061016072B620684169816900913D
:1007F000016821F48061016062B691E0032868D845
:1008000001280CD0022843464FF0000249462046FA
:1008100000960FD000F0D0FDB0BB10E08BE0324668
:100820004146204600F047FE70BB20680069616ABF
:1008300008706CE000F0C0FD30BB72B634E0206898
:10084000016821F48061016072B620680069616A04
:100850000870606A401C6062208D401E2085608D9B
:10086000401E6085384846F2A8110068B0FBF1F0E0
:10087000C0EBC00000EB80000090401E009008D04C
:1008800020684069C04300E029E040070CD500988B
:10089000F3E744F8305F6773A573206940F02000E8
:1008A000206162B625731AE02068016841F4007186
:1008B000016020680069616A0870606A401C6062BB
:1008C000218D491E2185618D491E618562B6216891
:1008D0001BE032464146204600F0EDFD18B10120F4
:1008E00007B0BDE8F08F20680069616A0870606A2F
:1008F000401C6062218D491E2185618D491E6185E4
:1009000021684A69D24352070AD409690170606AB2
:10091000401C6062208D401E2085608D401E6085D9
:10092000208D00287FF46AAF84F83D7084F83E5033
:1009300084F83C50D4E70220D2E700000200100007
:100940000000FFFF04000100180000202DE9FF4F08
:1009500083B09A46DDE9119793460446DDF840805E
:10096000FFF76CFD054694F83D0020287FD1192340
:10097000012240492046009500F01EFD002876D156
:1009800094F83C00012872D0012084F83C002068D3
:100990000168C90703D1016841F0010101602068C5
:1009A000016821F400610160212084F83D004020AD
:1009B00084F83E0000262664C4F82480A4F82A9017
:1009C000608D20852C48E062CDE9007553465A467B
:1009D0002046049900F076FC70B930E02A4639468A
:1009E000204600F09BFD58B1206C042804D12068FB
:1009F000016841F400710160012007B0BDE8F08F8B
:100A0000606A216800780861606A401C6062218D1C
:100A1000491E89B22185628D521E62852268536902
:100A2000DB435B070BD469B100781061606A401C3E
:100A30006062208D401E2085608D401E6085208D67
:100A40000028CBD12A463946204600F08FFC0028EA
:100A5000CAD154F83D0B016841F4007101602020B7
:100A600004F81E09E67766770020C6E7FFE7022054
:100A7000C3E70000020010000000FFFF10B586B0C1
:100A80000021009101910291039100680F49884271
:100A90001AD10F4CA06940F00800A061A069694616
:100AA00000F008000490C020009012200190032064
:100AB00003900848FFF7D2FBE06940F40010E061C2
:100AC000E06900F40010049006B010BD005400402E
:100AD00000100240000C0140024881680278114475
:100AE000816070470C000020074810B5016841F094
:100AF00010010160032000F067F8002000F006F804
:100B000000F024F8002010BD0020024070B50D4D0B
:100B100004464FF47A712878B1FBF0F00A4909686D
:100B2000B1FBF0F000F0CEFA48B9102C07D2002249
:100B30002146501E00F028F800206C6070BD012096
:100B400070BD00000C000020180000200C4808B503
:100B5000816941F001018161816901F00101009128
:100B6000C16941F08051C161C06900F080500090BE
:100B70000448416821F0E06141F00071416008BD26
:100B80000010024000000140F0B40E4B1B680C4600
:100B9000C3F30223C3F10705042D00D90425191D51
:100BA000072901D2002300E0DB1E012606FA05F129
:100BB000491E214099409E40761E16403143F0BCAC
:100BC00000F0E6BD0CED00E0064900F00702086801
:100BD0004FF6FF03184040EA0220034A1043086022
:100BE000704700000CED00E00000FA052DE9F04729
:100BF0000F46050061D0434E306800F00700B84250
:100C000009D2306820F0070038433060306800F0C7
:100C10000700B84251D128683B4C810712D54007E4
:100C200003D5606840F4E06060602878000703D571
:100C3000606840F4605060606068A96820F0F0006F
:100C4000084360602878C00728D06868012810D061
:100C50002168022810D0890700292EDA616821F066
:100C6000030101436160FFF7E9FB804641F28839E7
:100C70000DE021688903EFE78901EDE7FFF7DEFB6F
:100C8000A0EB0801494502D90320BDE8F087606860
:100C9000696800F00C00B0EB810FEFD1306800F014
:100CA0000700B8420BD9306820F0070038433060A5
:100CB000306800F00700B84201D00120E5E728784D
:100CC000400705D56068E96820F4E060084360608B
:100CD0002878000706D56068296920F4605040EA4A
:100CE000C100606000F028F86168084AC1F3031190
:100CF000515CC8400649086006480068FFF706FFD7
:100D00000020C2E70020024000100240181C00082A
:100D100018000020100000200448054900684968B8
:100D2000044AC1F30221515CC840704718000020FA
:100D300000100240281C000812A185B00FC98DE8E0
:100D40000F0014A0144A006804905168134801F081
:100D50000C03042B10D0082B0ED1C1F38343C9031D
:100D60001DF803000AD5516804AAC1F34041515C43
:100D70000A4A5043B0FBF1F005B0704708494843B8
:100D8000FAE7000002030405060708090A0B0C0D28
:100D90000E0F1010010200000010024000127A0035
:100DA00000093D002DE9F84F040070D02078C04DB7
:100DB000C00749D06868C0F38100012807D068687F
:100DC000C0F38100022809D16868C00306D52868ED
:100DD000800339D560680028E7D035E06068B0F559
:100DE000803F0BD010B1B0F5A02F11D0286820F4AF
:100DF00080302860286820F4802002E0286840F4D1
:100E000080302860606890B1FFF718FB06460AE062
:100E1000286840F480202860F0E700BFFFF70EFB51
:100E2000801B642873D828688003F7D50CE0FFF78F
:100E300005FB064605E000BFFFF700FB801B6428AA
:100E4000F0D828688003F7D420789A4E80074FF0B6
:100E500001094FF0000839D5686810F00C0F07D071
:100E60006868C0F38100022809D16868C00306D40D
:100E70002868800714D52069012808D110E020696E
:100E8000B0B1C6F80090FFF7D9FA074605E00AE1CD
:100E9000FFF7D4FAC01B0228C4D828688007F7D50A
:100EA0002868616920F0F80040EAC10028600DE080
:100EB000C6F80080FFF7C2FA074604E0FFF7BEFA63
:100EC000C01B022823D828688007F7D420780007A1
:100ED0002CD57948A169D9B1C0F80090FFF7AEFAD6
:100EE000074604E0FFF7AAFAC01B02280FD8686A79
:100EF0008007F7D571484FF4FA510068B0FBF1F064
:100F0000009000BF0098411E0091FAD20EE080E0F0
:100F1000C0F80080FFF792FA074604E0FFF78EFA68
:100F2000C01B022875D8686A8007F7D4207840076C
:100F300060D5E8690027C00008D4E86940F0805017
:100F4000E861E869012700F0805000905C48016882
:100F5000C90513D40168834641F480710160FFF72D
:100F60006DFA824606E000BFFFF768FAA0EB0A00C0
:100F700064284ED8DBF80000C005F5D5E0680128EC
:100F80000AD008B1052813D0286A20F00100286291
:100F9000286A20F0040002E0286A40F0010028627C
:100FA000E06841F2883B98B1FFF748FA82460BE0CF
:100FB000286A40F004002862EEE700BFFFF73EFA1F
:100FC000A0EB0A0159455AD8286A8007F6D50CE0EB
:100FD000FFF734FA824605E0FFF730FAA0EB0A018A
:100FE00059454CD8286A8007F6D41FB1E86920F02B
:100FF0008050E861E06988B36968C1F38101022922
:1010000044D00228C6F8608004D0FFF717FA0446DF
:1010100038E034E0FFF712FA074604E0FFF70EFA73
:10102000C01B02282BD828688001F7D4206AB0F5AD
:10103000803F05D16868A16820F4003008436860EB
:10104000D4E908010843696821F474110843686011
:10105000C6F86090FFF7F2F9044606E025E000BF0D
:10106000FFF7ECF9001B022809D828688001F7D5A2
:101070001BE000BFFFF7E2F9001B022802D90320A2
:10108000BDE8F88F28688001F4D40EE00128F7D07D
:101090006868226A00F48031914204D1616A00F4E8
:1010A0007010884201D00120EAE70020E8E7000044
:1010B000001002400000424280044242180000201A
:1010C0000070004010B5401EB0F1807F01D30120B8
:1010D00010BD4FF0E02460610F21601700F058FB55
:1010E0000020A06107202061002010BDFEE7000065
:1010F00001490860704700000800002001684A6943
:10110000D24352050FD46FF480624A61002140F847
:10111000301F202242738173026942F0040202618F
:10112000017301207047002070470000F8B50446A5
:10113000C06A1E460D461746082807D0012805D06C
:1011400010F5803F02D0206B122804D1206801687E
:1011500041F480710160134600224FF001112046D6
:10116000009600F029F940B120680068C00502D55A
:101170004FF4007020640320F8BD2069B0F5804F63
:101180000ED00620216800EAD51040F0F00008617A
:1011900033463A460B49204600F042F978B902E05E
:1011A00005F0FE0000E0E8B2216808610549334619
:1011B0003A46891F204600F033F90028DCD0012090
:1011C000F8BD0000080001002DE9F84F0446006852
:1011D00089460B9D01689846174641F4806101607D
:1011E0002068016841F48071016000954FF0011B97
:1011F0000022594620460A9B00F0DEF84FF4007AA0
:1012000040B120680068C00501D5C4F840A00320A3
:10121000BDE8F88F216809F0FE0008612B462849D7
:1012200020460A9A00F0FCF8F0BB2068416980690A
:1012300000902A4620460A9900F070F940B1206CCF
:1012400004283AD12068016841F40071016034E05B
:10125000FEB2B8F1010F09D02168380A08612A46A8
:1012600020460A9900F05AF90028E8D12068066162
:101270002A4620460A9900F051F90028DFD120685B
:10128000016841F4807101600095002259462046B2
:101290000A9B00F091F80028B3D1216809F0FF0003
:1012A00040F00100086100E007E02B4604492046B9
:1012B0000A9A00F0B5F80028AAD00120A8E700009B
:1012C000020001002DE9F843044600680D46DDE9FF
:1012D000089701689846164641F4807101604B46B4
:1012E00000224FF001112046009700F065F848B148
:1012F00020680068C00502D54FF400702064032008
:10130000BDE8F883216805F0FE0008613B464A46C7
:101310001549204600F084F888B920684169806941
:1013200000903A464946204600F0F8F848B1206C53
:10133000042804D12068016841F400710160012093
:10134000DEE7F5B2B8F1010F09D02168300A086173
:101350003A464946204600F0E1F80028E7D12068E7
:1013600005610020CCE700000200010070B51646C0
:101370000D4604460DE02046FFF7C0FE08B10120EF
:1013800070BD681C05D0FFF759F8801BA84207D82C
:1013900035B120684069C0434007ECD4002070BDDF
:1013A000002044F8300F20216173A073216941F0BF
:1013B000200121612073E2E72DE9F0471E469046A7
:1013C0000D460446C1F30747DDF8209008E0701C85
:1013D00006D0FFF733F8A0EB0900B0420FD876B182
:1013E0002068012F18D0806925EA00000004000C55
:1013F00014D000214145EAD00020BDE8F08700204C
:1014000044F8300F20216173A073216941F020015D
:10141000216120730120F0E74069E5E70121E9E758
:101420002DE9F0479A4691460E46044600254FF0B6
:101430002008C1F3074725E020684069C043400504
:1014400014D42068016841F40071016021686FF4D0
:1014500080604861256384F83D8084F83E50206CAC
:1014600040F00400206484F83C501FE0B9F1FF3FD5
:1014700008D0FEF7E3FFA0EB0A0149450CD8B9F10B
:10148000000F09D02068012F13D0806926EA0000E0
:101490000004000C0BD0CFE744F8305F84F80D80D7
:1014A000A573206940F02000206125730120BDE86C
:1014B000F0874069EAE72DE9F041002590460E46A5
:1014C0000446202717E04069C043C0060CD454F8F6
:1014D000301B6FF01000486144F810596777A5770A
:1014E000206A2062257717E0FEF7A8FFA0EB08002E
:1014F000B04208D83EB120684169C9434906E2D4E8
:101500000020BDE8F08144F8305F6773A57320695F
:1015100040F02000206125730120F2E770B51646E7
:101520000D4604460DE02046FFF7E8FD08B1012016
:1015300070BD681C05D0FEF781FF801BA84207D84C
:1015400035B120684069C0430006ECD4002070BD6E
:10155000002044F8300F20216173A073216941F00D
:10156000200121612073E2E71CB500F0F00141F099
:101570000C028DF8042041F0080100018DF80510DF
:1015800040F00C018DF8061040F008008DF80700BF
:101590004FF47A700090042301AA4E210148FFF70E
:1015A00017F81CBD1C00002010B52820FEF744FED3
:1015B0003020FFF7D9FF0F20FEF73EFE3020FFF767
:1015C000D3FF0F20FEF738FE3020FFF7CDFF0F20AE
:1015D000FEF732FE2020FFF7C7FF0A20FEF72CFEA1
:1015E0002820FFF7C1FF0A20FEF726FE0820FFF79C
:1015F000BBFF0A20FEF720FE0120FFF7B5FF0A20FF
:10160000FEF71AFE0620FFF7AFFF0A20FEF714FED2
:101610000C20FFF7A9FFBDE810400A20FEF70CBE22
:101620001CB500F0F00141F00D028DF8042041F0EE
:10163000090100018DF8051040F00D018DF806102C
:1016400040F009008DF807004FF47A7000900423F1
:1016500001AA4E210148FEF7BBFF1CBD1C00002063
:1016600010B5044602E0641CFFF7DAFF207800287A
:10167000F9D110BD01F00F0120B141F0C00000BF51
:10168000FFF772BF41F08000FAE7FEE7FEE7704720
:1016900000B5034685B00078FEF78AFD8DF80C0092
:1016A0005878FEF785FD8DF80D009878FEF780FDDF
:1016B0008DF80E00D878FEF77BFD8DF80F001879B5
:1016C000FEF776FD8DF810005879FEF771FD8DF864
:1016D00011009879FEF76CFD8DF812004FF47A72C4
:1016E000072103A88DE80700044801230022D02128
:1016F0000068FFF72BF905B000BD000008000020CE
:101700007047FFF7E9B930B58FB028216846FEF77A
:1017100012FD14210AA8FEF70EFD01210804CDE9EF
:1017200000100024029402250491CDE907504FF4E3
:10173000E01009906846FFF735FB08B172B6FEE786
:101740000F20CDE90A054FF48060CDE90C4002215D
:101750000AA80E94FFF74AFA002801D072B6FEE7F5
:101760000FB030BD7047FEE70FB4084B10B504A9A9
:1017700002AA039800F02CF8044602A9002000F009
:10178000C8F9204610BC5DF814FB0000131B0008CC
:101790000907090E002804DB00F1E02080F800149E
:1017A000704700F00F0000F1E02080F8141D704732
:1017B00002E008C8121F08C1002AFAD1704770471A
:1017C000002001E001C1121F002AFBD17047000078
:1017D0002DE9FF4F8BB088460546002606E02528F8
:1017E0000BD0DDE90D1290476D1C761C287800287F
:1017F000F5D10FB03046BDE8F08F0024A146A246D7
:101800000122AE4900E0044315F8013F203B02FAF3
:1018100003F00842F7D128782A2810D06FF02F0261
:101820002878A0F13001092915D809EB890102EBCC
:10183000410144F0020400EB01096D1CF0E758F887
:10184000041B5FEA010903D544F40054C9F10009FF
:1018500044F002046D1C28782E2817D115F8010FCA
:1018600044F004042A280ED06FF02F022878A0F14B
:10187000300109290AD80AEB8A0102EB410100EB89
:10188000010A6D1CF2E758F804AB6D1C28786C282F
:101890000FD006DC4C2817D068280DD06A2814D148
:1018A00004E0742810D07A280FD10DE044F400141D
:1018B0000AE044F4801401E044F440146978814261
:1018C00002D104F580146D1C6D1C2878692865D040
:1018D00006DC00288DD0632827D0642806D15DE07F
:1018E0006E2808D073282AD0752877D0DDE90D122C
:1018F0009047761CE0E0C4F30250022809D0032888
:101900000DD0D8F8001004280DD00E6008F104089E
:10191000D2E0D8F80010F217C1E90062F6E7D8F873
:1019200000100E80F2E70E70F0E718F8041B8DF837
:10193000001000208DF80100EB46012003E058F86C
:1019400004BB4FF0FF3061074FF0000701D40AE0FD
:101950007F1C57450DDA8742FADB1BF80710002978
:10196000F6D106E07F1C8742FCDB1BF8071000293C
:10197000F8D1DDE90D23A9EB07008146214600F0EF
:10198000B1F83044C61904E0DDE90D121BF8010B73
:1019900090477F1EF8D22146484688E058F8040B4D
:1019A000C4F302514FF00A0B032900D100B20429FD
:1019B00000D140B2002802DA40422D2102E0210588
:1019C00005D52B218DF82410012104E006E0E10764
:1019D00010D02021F6E708AF089113E058F8040B67
:1019E000C4F302514FF00A0B032900D180B204293D
:1019F00000D1C0B20021EEE75946FEF7A7FB303117
:101A000007F8011D0028F7D1ADEB070000F1200B0E
:101A1000600702D524F4803401E04FF0010ADA4572
:101A200002DDAAEB0B0000E00020824600EB0B0178
:101A300008980144A9EB01000A90E00306D4DDE90F
:101A40000D2321460A9800F04DF806444FF0000996
:101A500008E009A911F80900DDE90D12904709F124
:101A60000109761C08998945F3DBE0030CD5DDE913
:101A70000D2321460A9800F035F8064404E0DDE91C
:101A80000D1230209047761CBAF10001AAF1010A2C
:101A9000F5DC05E0DDE90D1217F8010B9047761C27
:101AA000BBF10001ABF1010BF4DC0A982146DDE942
:101AB0000D2300F005F806446D1C97E60928010087
:101AC0002DE9F041044600251E461746880404D43B
:101AD00005E039462020B0476D1C641EF9D5284624
:101AE000BDE8F0812DE9F041044600251E469046F0
:101AF000C80301D5302700E02027880404D505E07D
:101B000041463846B0476D1C641EF9D52846BDE8ED
:101B1000F0810A68531C0B601070704708B5FEF71F
:101B2000E3FFFFF7F0FD2E48816941F0200181615C
:101B3000816901F020010091816941F00401816116
:101B4000816901F004010091816941F0080181611E
:101B50008069244900F00800009023484FF4804237
:101B600001602249416000218160C0E903124161A6
:101B70008161C1610162FEF767FC08B172B6FEE7E0
:101B8000FFF712FD1848FFF7B3FA1948FFF780FD79
:101B9000174C1748FEF718FBA0790090124863799C
:101BA000227914A15430FFF7DFFD207800900E4811
:101BB0006378A27814A16D30FFF7D6FD03210020D1
:101BC000FFF758FD08485430FFF74AFD0421012073
:101BD000FFF750FD04486D30FFF742FDD9E70000E4
:101BE00000100240005400401C000020A0860100AC
:101BF00000000020253032642F253032642F32302F
:101C00002530326400000000253032643A2530323D
:101C1000643A25303264000000000000000000003B
:101C20000102030406070809000000000102030482
:101C3000501C0008000000201C000000B017000825
:101C40006C1C00081C0000208C040000C017000859
:101C50000000170603091500000000000100000045
:0C1C600010000000000000000024F40050
:04000005080000ED02
:00000001FF
