:020000040800F2
:1000000068040020050100082F14000841130008AF
:100010002D14000837040008231600080000000013
:100020000000000000000000000000003314000881
:1000300039040008000000003114000835140008DD
:100040001F0100081F0100081F0100081F01000810
:100050001F0100081F0100081F0100081F01000800
:100060001F0100081F0100081F0100081F010008F0
:100070001F0100081F0100081F0100081F010008E0
:100080001F0100081F0100081F0100081F010008D0
:100090001F0100081F0100081F0100081F010008C0
:1000A0001F0100081F0100081F0100089914000823
:1000B0001F0100081F0100081F0100081F010008A0
:1000C0001F0100081F0100081F0100081F01000890
:1000D0001F0100081F0100081F0100081F01000880
:1000E0001F0100081F0100081F010008DFF810D0E1
:1000F00000F080F9004800477D160008AFF300804B
:10010000680400200648804706480047FEE7FEE7EF
:10011000FEE7FEE7FEE7FEE7FEE7FEE7FEE7FEE7B7
:1001200095140008ED000008202A04DB203A21FA8B
:1001300002F00021704721FA02F3D040C2F1200200
:100140009140084319467047D2B201E000F8012BF4
:10015000491EFBD270470022F6E710B513460A4647
:1001600004461946FFF7F0FF204610BD2DE9FE4F6B
:1001700081EA030404F0004421F0004100944FF0B0
:10018000000B23F0004350EA01045ED052EA03045E
:100190005BD0C3F30A54C1F30A552C44A4F2F334E0
:1001A0000194A0FB0254C1F3130141F48011C3F385
:1001B000130343F4801301FB024400FB034E840A43
:1001C000970A44EA815447EA8357A4FB07680295DB
:1001D0008D0A05FB07854FEA932C04FB0C54270579
:1001E000029D4FEA065847EA1637B5EB08056EEB55
:1001F000070C870E920E47EA811742EA8312A7FB8B
:100200000201B6EB0B0164EB00042B0D43EA0C3347
:100210005E1844EB1C50DA465146E7FB0201C5F379
:1002200013044FEA0B3343EA14534FEA0432019CA0
:1002300043EA0603A4F10C040294009CCDE900B447
:1002400000F089F803B0BDE8F08F00200146F9E71F
:100250000EB540F2334102910021CDE900110A466A
:100260000B4600F078F803B000BD20F00040C10D4F
:10027000C0F3160040F400007F2901DA0020704727
:10028000962903DCC1F19601C84070479639884031
:10029000704701F0004330B421F0004150EA010200
:1002A00006D00A0DA2F56072C1F31301002A02DC28
:1002B00030BC00207047440F44EAC104C100E0187C
:1002C00030BC00EBC250AFF300800029A8BF7047DC
:1002D000401C490008BF20F00100704710B4B0FA7C
:1002E00080FC00FA0CF050EA010404BF10BC704717
:1002F00049B1CCF1200421FA04F411FA0CF118BF31
:10030000012121430843A3EB0C01CB1D4FEA0061FF
:100310004FEA102042BF002010BC704700EBC350D2
:1003200010440029A4BF10BC7047401C490008BFFE
:1003300020F0010010BC704710B5141E73F10004CA
:1003400008DA401C41F1000192185B411A4301D1C7
:1003500020F0010010BD2DE9F04D92469B4611B1F1
:10036000B1FA81F202E0B0FA80F22032904600F059
:1003700053F804460F4640EA0A0041EA0B0153468F
:100380005A46084313D0114653EA010019D0C8F168
:1003900040025046FFF7C8FE05460E4650465946F5
:1003A000424600F039F8084305D0012004E0204619
:1003B0003946BDE8F08D0020054346EAE0762C433F
:1003C00037430A986305E40AA0EB08000022FD0AFF
:1003D00044EA47540A3002D500200146E9E7010506
:1003E00010196941DDE9084500196941BDE8F04D82
:1003F000A2E70000064C074D06E0E06840F001036C
:1004000094E8070098471034AC42F6D3FFF772FE29
:10041000B4160008D4160008202A04DB203A00FA9B
:1004200002F1002070479140C2F1200320FA03F34B
:10043000194390407047FEE7704772B6FEE7000030
:1004400070B5044600F004F90546601C02D004486B
:100450000078044400F0FCF8401BA042FAD370BDC1
:10046000100000202DE9F84FDFF8B891002409F1C1
:10047000040A0AF1040B23460F270BF1040EC9E00E
:100480000125A5402A40AA427DD1674ED1F804C07B
:10049000ACEB0608B44532D014DCBCF1030F3AD003
:1004A00009DCBCF1000F2AD0BCF1010F1CD0BCF15B
:1004B000020F31D11DE0BCF1110F17D0BCF1120FAA
:1004C0002AD119E0B8F5881F19D006DCB8F5803FAD
:1004D00015D0B8F5801F1FD111E0B8F5001F0ED060
:1004E000B8F5041F18D10AE0CB6815E0CB681B1DD6
:1004F00012E0CB6808330FE0CB680C330CE08B685C
:100500002BB1012B4FF0080303D0456104E0042315
:1005100002E0056100E00023FF2A01D8064601E061
:1005200000F104064FEA840501D9A5F12005D6F8AB
:10053000008007FA05FC28EA0C0803FA05F548EAEA
:100540000508C6F800804D68ED0062D5374DAE69EC
:1005500046F00106AE61AD6924F0030605F0010521
:100560000095334D06EB050CDCF80850A607360F56
:1005700007FA06F825EA0805DFF8B880404503D1F8
:100580004FF0000817E044E0DFF8AC80404502D1AE
:100590004FF001080FE0DFF8A480404502D14FF092
:1005A000020808E0DFF89880404502D14FF00308C8
:1005B00001E04FF0040808FA06F848EA0508CCF80C
:1005C00008804D68D9F80060ED034D4601D516430B
:1005D00000E096432E604D68DAF80060AD035546A2
:1005E00001D5164300E096432E604D68DBF80060AD
:1005F000ED025D4601D5164300E096432E604D683E
:10060000DEF80060AD02754601D5164300E0964362
:100610002E60641C0D682A46E5407FF431AFBDE8CA
:10062000F88F00000004014000001110001002408B
:100630000000014000080140000C01400010014092
:10064000001401400AB1016170470904FBE7000092
:10065000014880687047000010000020024881684F
:10066000027811448160704710000020074810B5DF
:10067000016841F010010160032000F075F80020CE
:1006800000F006F800F024F8002010BD0020024021
:1006900070B50D4D04464FF47A712878B1FBF0F037
:1006A0000A490968B1FBF0F000F0CCFA48B9102C07
:1006B00007D200222146501E00F036F800206C6060
:1006C00070BD012070BD0000100000201C00002043
:1006D0000C4808B5816941F001018161816901F02F
:1006E00001010091C16941F08051C161C06900F010
:1006F000805000900448416821F0E06141F00071B1
:10070000416008BD0010024000000140002809DBE4
:1007100000F01F02012191404009800000F1E0201B
:10072000C0F8001170470000F0B40E4B1B680C4677
:10073000C3F30223C3F10705042D00D90425191DB5
:10074000072901D2002300E0DB1E012606FA05F18D
:10075000491E214099409E40761E16403143F0BC10
:1007600000F060BF0CED00E0064900F007020868E9
:100770004FF6FF03184040EA0220034A1043086086
:10078000704700000CED00E00000FA052DE9F0478D
:100790000F46050061D0434E306800F00700B842B4
:1007A00009D2306820F0070038433060306800F02C
:1007B0000700B84251D128683B4C810712D5400749
:1007C00003D5606840F4E06060602878000703D5D6
:1007D000606840F4605060606068A96820F0F000D4
:1007E000084360602878C00728D06868012810D0C6
:1007F0002168022810D0890700292EDA616821F0CB
:10080000030101436160FFF723FF804641F288390D
:100810000DE021688903EFE78901EDE7FFF718FF95
:10082000A0EB0801494502D90320BDE8F0876068C4
:10083000696800F00C00B0EB810FEFD1306800F078
:100840000700B8420BD9306820F007003843306009
:10085000306800F00700B84201D00120E5E72878B1
:10086000400705D56068E96820F4E06008436060EF
:100870002878000706D56068296920F4605040EAAE
:10088000C100606000F018F86168084AC1F3031104
:10089000515CC8400649086006480068FFF7F8FE4A
:1008A0000020C2E70020024000100240A416000809
:1008B0001C0000201400002012A185B00FC98DE893
:1008C0000F0014A0144A006804905168134801F006
:1008D0000C03042B10D0082B0ED1C1F38343C903A2
:1008E0001DF803000AD5516804AAC1F34041515CC8
:1008F0000A4A5043B0FBF1F005B07047084948433D
:10090000FAE7000002030405060708090A0B0C0DAC
:100910000E0F1010010200000010024000127A00B9
:1009200000093D002DE9F84F040070D02078C04D3B
:10093000C00749D06868C0F38100012807D0686803
:10094000C0F38100022809D16868C00306D5286871
:10095000800339D560680028E7D035E06068B0F5DD
:10096000803F0BD010B1B0F5A02F11D0286820F433
:1009700080302860286820F4802002E0286840F455
:1009800080302860606890B1FFF762FE06460AE09A
:10099000286840F480202860F0E700BFFFF758FE89
:1009A000801B642873D828688003F7D50CE0FFF714
:1009B0004FFE064605E000BFFFF74AFE801B642895
:1009C000F0D828688003F7D420789A4E80074FF03B
:1009D00001094FF0000839D5686810F00C0F07D0F6
:1009E0006868C0F38100022809D16868C00306D492
:1009F0002868800714D52069012808D110E02069F3
:100A0000B0B1C6F80090FFF723FE074605E00AE103
:100A1000FFF71EFEC01B0228C4D828688007F7D540
:100A20002868616920F0F80040EAC10028600DE004
:100A3000C6F80080FFF70CFE074604E0FFF708FE4B
:100A4000C01B022823D828688007F7D42078000725
:100A50002CD57948A169D9B1C0F80090FFF7F8FD0D
:100A6000074604E0FFF7F4FDC01B02280FD8686AB0
:100A70008007F7D571484FF4FA510068B0FBF1F0E8
:100A8000009000BF0098411E0091FAD20EE080E075
:100A9000C0F80080FFF7DCFD074604E0FFF7D8FD53
:100AA000C01B022875D8686A8007F7D420784007F1
:100AB00060D5E8690027C00008D4E86940F080509C
:100AC000E861E869012700F0805000905C48016807
:100AD000C90513D40168834641F480710160FFF7B2
:100AE000B7FD824606E000BFFFF7B2FDA0EB0A00AB
:100AF00064284ED8DBF80000C005F5D5E068012871
:100B00000AD008B1052813D0286A20F00100286215
:100B1000286A20F0040002E0286A40F00100286200
:100B2000E06841F2883B98B1FFF792FD82460BE006
:100B3000286A40F004002862EEE700BFFFF788FD56
:100B4000A0EB0A0159455AD8286A8007F6D50CE06F
:100B5000FFF77EFD824605E0FFF77AFDA0EB0A0174
:100B600059454CD8286A8007F6D41FB1E86920F0AF
:100B70008050E861E06988B36968C1F381010229A6
:100B800044D00228C6F8608004D0FFF761FD044617
:100B900038E034E0FFF75CFD074604E0FFF758FD5E
:100BA000C01B02282BD828688001F7D4206AB0F532
:100BB000803F05D16868A16820F400300843686070
:100BC000D4E908010843696821F474110843686096
:100BD000C6F86090FFF73CFD044606E025E000BF44
:100BE000FFF736FD001B022809D828688001F7D5D9
:100BF0001BE000BFFFF72CFD001B022802D90320D9
:100C0000BDE8F88F28688001F4D40EE00128F7D001
:100C10006868226A00F48031914204D1616A00F46C
:100C20007010884201D00120EAE70020E8E70000C8
:100C30000010024000004242800442421C0000209A
:100C40000070004010B5401EB0F1807F01D301203C
:100C500010BD4FF0E02460610F21601700F0E2FC4E
:100C60000020A06107202061002010BD7047704760
:100C700070B590F83C20012A26D0012480F83C4031
:100C8000022280F83D2003685A689D6822F07006B1
:100C90000A6832435A600D4B02689A4208D0B2F19A
:100CA000804F05D00A4B9A4202D00A4B9A4204D197
:100CB000496825F080031943916080F83D40002188
:100CC00080F83C10084670BD022070BD002C014029
:100CD000000400400008004010B5040003D094F860
:100CE0003D0010B107E0012010BD002084F83C0059
:100CF000204600F01FF8022084F83D00211D2068E6
:100D000000F0D0FB012084F8460084F83E0084F80F
:100D10003F0084F8400084F8410084F8420084F8E1
:100D2000430084F8440084F8450084F83D00002026
:100D300010BD000000B585B0002100910191029125
:100D400003910068124988421FD11248816941F419
:100D500000618161816901F400610491816941F060
:100D6000040181618069694600F0040004904FF439
:100D7000807000900848FFF775FB002211461B2089
:100D8000FFF7D2FC1B20FFF7C1FC05B000BD00003F
:100D9000002C0140001002400008014070B50446DC
:100DA00090F83C00012817D0012584F83C5002201F
:100DB00084F83D002068826822F0770222F47F42A6
:100DC00082600868502830D00DDC20284DD005DC2A
:100DD00098B310283BD148E0022070BD302844D0A1
:100DE000402834D139E0602828D0702806D0B0F5EA
:100DF000805F2CD0B0F5005F29D10AE0CB68D1E943
:100E00000121206800F091FB2068816841F07701A2
:100E100009E0CB68D1E90121206800F086FB206859
:100E2000816841F48041816011E0CA6849682068A6
:100E300000F08DFB5021206807E016E0CA68496881
:100E4000206800F0C1FB6021206800F078FB84F886
:100E50003D50002084F83C0070BDCA684968206895
:100E600000F075FB40212068EFE72268014610463C
:100E7000EBE7000070B50546007F012824D1254C22
:100E8000607878B101281FD10021284600F026FAA9
:100E9000A060296800264E626168884215D9A0EBDF
:100EA00001001AE04FF00001284600F017FA6060D8
:100EB000012060702868016A21F00A010162286837
:100EC000016A41F00201016270BD01D3E06805E0F2
:100ED000A0EB01004FF6FF710844E060FFF7B8F99E
:100EE0000D4A0E4BFFF742F9FFF7D3F9FFF7BDF9B3
:100EF000207066702868016A21F00A010162286882
:100F0000016A016206480068C16821F00201C160FF
:100F100070BD0000000000209CC420B07268913FAA
:100F2000200000202DE9F041054690F83C000C46D9
:100F3000012836D0012085F83C008AB3042A42D02B
:100F40002868082A51D0D4E90023E168066A26F40B
:100F500080560662C669076A26F4407646EA03238D
:100F60004FF6FF7606EA013123F4704319434FF43C
:100F7000005627F4005306EA02321A43C1610262A6
:100F80002868C16921F44061C1612868C169A2680B
:100F900041EA0221C161002085F83C00BDE8F081F2
:100FA00001E00220FAE7D4E90012E368286800F0C3
:100FB000DFFA2868816921F00C0181612868816964
:100FC000A26811430FE0D4E90012E368286800F03A
:100FD0000DFB2868816921F440618161286881697D
:100FE000A26841EA02218161D5E7D4E90027267B86
:100FF000016A21F480710162C169036A21F0030171
:10100000394321F0F00731074FF4007647EA1161C8
:1010100023F4007306EA02221A43C16102622868BF
:10102000C16921F00C01C1612868C169A26811433E
:10103000B0E710B5040003D094F83D0010B107E00C
:10104000012010BD002084F83C00204600F01EF86E
:10105000022084F83D00211D206800F023FA0120C1
:1010600084F8460084F83E0084F83F0084F840008D
:1010700084F8410084F8420084F8430084F8440076
:1010800084F8450084F83D00002010BD7047000042
:1010900010B5044651B104290DD0082910D094F898
:1010A000410094F84520012811D10EE094F83E004B
:1010B00094F84220F7E794F83F0094F84320F2E7D1
:1010C00094F8400094F84420EDE7012A01D0012073
:1010D00010BD022051B1042911D0082918D084F87C
:1010E000410084F845000C291BD136E084F83E000D
:1010F00084F842002068C26842F0020210E084F8DE
:101100003F0084F843002068C26842F0040207E010
:1011100084F8400084F844002068C26842F0080265
:10112000C2600122206800F0F3F90E49206888426D
:1011300008D0B0F1804F05D00B49884202D00B494E
:10114000884204D1816801F00701062903D00168B3
:1011500041F001010160002010BD2068C26842F02A
:101160001002DDE7002C01400004004000080040B0
:1011700070B50446006801694FF00005C94389074E
:1011800015D4C168C943890711D4E91E0161012042
:101190002077206880698007204602D0FFF76AFE2A
:1011A00004E000F098F8204600F096F825772068D3
:1011B0000169C943490717D4C168C943490713D412
:1011C0006FF004010161022020772068806910F42B
:1011D000407F204602D0FFF74DFE04E000F07BF890
:1011E000204600F079F8257720680169C94309078E
:1011F00016D4C168C943090712D46FF00801016110
:10120000042020772068C0698007204602D0FFF7BD
:1012100031FE04E000F05FF8204600F05DF825772D
:1012200020680169C943C90617D4C168C943C90602
:1012300013D46FF010010161082020772068C06985
:1012400010F4407F204602D0FFF714FE04E000F0C7
:1012500042F8204600F040F8257720680169C9432C
:10126000C90708D1C168C943C90704D1891E0161F2
:10127000204600F032F820680169C943090609D404
:10128000C168C943090605D46FF080010161204699
:10129000FFF7ECFC20680169C943490609D4C1681D
:1012A000C943490605D46FF040010161204600F0B2
:1012B0002AF820680169C94389060BD4C168C9436B
:1012C000890607D46FF0200101612046BDE8704017
:1012D000FFF7CDBC70BD70477047704702460020D5
:1012E00041B1042909D008290AD00C2901D110687C
:1012F000006C70471068406B70471068806B7047D7
:101300001068C06B7047704770B501220A4D5402D7
:1013100021462846FFF796F90A2000F0A3F900229B
:1013200021462846FFF78EF904480068C16841F05D
:101330000201C16070BD00000008014020000020D3
:10134000FEE7000070B586B00024104800940194B8
:1013500002940394816941F00401816180690C4E1B
:1013600000F004004FF400750490224629463046F0
:10137000FFF768F901200095CDE9010402200390F0
:1013800069463046FFF76EF806B070BD00100240A7
:101390000008014010B58AB0002423480494059445
:1013A00006940794089409940094019402941D49AA
:1013B000039401603F21C0E901144FF6FF71C0E9B9
:1013C000031444618461FFF787FC08B1FFF735F827
:1013D0004FF48050049004A91348FFF7DFFC08B1D4
:1013E000FFF72BF81048FFF724FE08B1FFF725F8A8
:1013F000089408A90C480994FFF73AFC08B1FFF7D4
:101400001CF80120CDE900400294002269460648FC
:101410000394FFF787FD002801D0FFF70EF80AB00C
:1014200010BD0000002C014020000020FEE7FEE778
:1014300070477047FFF712B930B58FB02821684662
:10144000FEF789FE14210AA8FEF785FE0225012079
:10145000049000951020059000244FF46010CDE911
:10146000084007956846FFF75DFA08B172B6FEE7D7
:101470000F20CDE90A054FF48060CDE90C40022130
:101480000AA80E94FFF782F9002801D072B6FEE791
:101490000FB030BD704700000148FFF769BE000083
:1014A00020000020F0B50268164B174C174D4FF086
:1014B0008047984205D0B84203D0A04201D0A8424C
:1014C00003D122F070064A683243984205D0B842F0
:1014D00003D0A04201D0A84203D122F44074CA68CC
:1014E00022434C6922F08002224302608A68C26271
:1014F0000A688262984201D1096901630121416150
:10150000F0BD0000002C0140000400400008004035
:1015100010B501F01F030121046A99408C43046255
:10152000016A9A401143016210BD10B5846842EA15
:10153000032224F47F440A432243826010BD826860
:1015400022F070020A4342F007018160704710B533
:10155000036A046A24F001040462846924F0F0043C
:1015600044EA021423F00A020A438461026210BDB5
:1015700070B5046A24F0010404628469056A0F4EA0
:10158000B04208D0B0F1804F05D00D4EB04202D02D
:101590000C4EB04203D124F00304144301E044F0A4
:1015A00001041A0724F0F00444EA126225F00A0349
:1015B00001F00A0119438261016270BD002C0140F3
:1015C000000400400008004010B5036A23F0100337
:1015D00003628369046A23F4704343EA023224F00D
:1015E000A00343EA01118261016210BD30B5046AB3
:1015F00024F0100404628469056A24F4407444EA07
:10160000022222F470444FF6FF7202EA03322243B0
:10161000A02425F0A00304EA0111194382610162AC
:1016200030BDFEE70907090E002804DB00F1E020C9
:1016300080F80014704700F00F0000F1E02080F8FF
:10164000141D704702E008C8121F08C1002AFAD111
:1016500070477047002001E001C1121F002AFBD132
:1016600070470000044900220B685A6209684A6A00
:101670008242FCD37047000020000020FEF7F6FFF6
:10168000FFF7DAFEFFF75EFEFFF784FE0021044855
:10169000FFF7FEFCFFF738FEC820FEF7D1FEF9E7A2
:1016A00020000020000000000000000001020304F0
:1016B00006070809D41600080000002020000000DA
:1016C00044160008F416000820000020480400001A
:1016D0005416000800000000000000000000000098
:1016E00000000000010000001000000000000000E9
:0416F0000024F400DE
:04000005080000ED02
:00000001FF
